:060000000A128A11F32F21
:100C580064008001840A04060319003404062D2E5A
:100C68000130F0020030031CF103F1027008710436
:100C7800031D3F2E402E342E0800F200831203136A
:100C88008715720888000714FE30FF007F08870563
:100C98006430F0000030F1000A128A1134260A127A
:100CA8008A110800F900F801791C5B2E5C2E602E71
:100CB8007708FF007F08F8070310F70D0310F90CF9
:100CC8007908031D682E692E582E78080800F2004E
:100CD800F730FF007F088312031387057208880026
:100CE8000714FE30FF007F0887056430F0000030ED
:100CF800F1000A128A1134260A128A110800F40136
:100D0800F5017008710403198A2E8B2EC22EF60184
:100D1800F60A992E01300310F00DF10DFF3E031D68
:100D28008F2E0130FF007F08F607F11F9C2E9D2EA5
:100D38008E2E01300310F40DF50DFF3E031D9E2E7F
:100D480071087302031DAA2E70087202031CAD2ECF
:100D5800AE2EB52E7008F2027108031CF303F302DD
:100D6800741401300310F10CF00CFF3E031DB62E75
:100D78000130F602031DC12EC22E9D2E7508F1000A
:100D88007408F00008008316031387018801C33034
:100D9800F400CD30F300F30BCF2EF40BCF2E303010
:100DA8000A128A116B260A128A11C330F400CD3058
:100DB800F300F30BDD2EF40BDD2E30300A128A110E
:100DC8006B260A128A11C330F400CD30F300F30BFE
:100DD800EB2EF40BEB2E30300A128A116B260A1216
:100DE8008A11C330F400CD30F300F30BF92EF40B65
:100DF800F92E38300A128A116B260A128A11C3306A
:100E0800F400CD30F300F30B072FF40B072F0C3051
:100E18000A128A116B260A128A11C330F400CD30E7
:100E2800F300F30B152FF40B152F01300A128A115A
:100E38006B260A128A11C330F400CD30F300F30B8D
:100E4800232FF40B232F08000A128A11C7260A122F
:100E58008A110B3083120313B4000230B500EE3050
:100E6800B2000030B3003D30B7002B30B600803000
:100E78000A128A116B260A128A110B30FA00023004
:100E8800FB000A128A118A270A128A1183300A1271
:100E98008A116B260A128A112B300A128A114126EE
:100EA8000A128A1184300A128A116B260A128A11D0
:100EB800EE30FA000030FB000A128A118A270A1263
:100EC8008A1187300A128A116B260A128A113D305C
:100ED8000A128A1141260A128A1188300A128A11C6
:100EE8006B260A128A11F93083120313B0000230FC
:100EF800B100F930FA000230FB000A128A118A2781
:100F08000A128A11862F0A128A110028FD01FD0A89
:100F18007B0883120313AD007A08AC00C92FF630A2
:100F2800F7002D08F3002C08F2000A30F00000301A
:100F3800F1000A128A1183260A128A1170080A120D
:100F48008A1156260A128A11831203132C07FC00F1
:100F58007D08203E84007C08831380000130FF0058
:100F68007F08FD070A30F0000030F1002D08F3007B
:100F78002C08F2000A128A1183260A128A117108B3
:100F880083120313AD007008AC002C082D04031D58
:100F9800CE2FCF2F932F7D08203E8400831380010E
:100FA8007D08FF3EFD00ED2F7D08203E8400831361
:100FB8000008303E83120313AA00003003180130E2
:100FC800AB002A080A128A1141260A128A11013036
:100FD800FD027D08031DF12FF22FD82F080083137F
:100FE8002030840039300A128A112C260A128A11FC
:080FF80083010A128A11282F5F
:02400E003B3F36
:00000001FF
