:060000000A128A11D02F44
:1009360064008001840A04060319003404069C2C12
:100946000A128A11AB250A128A110A128A111E2668
:100956000A128A11A82C0A128A1100287E088A0017
:100966007F0882000A128A11B1240A128A118000B5
:10097600840A04087D0603190034FF0A0319FE0AD7
:10098600B52CF2008312031387157208880007142A
:10099600FE30FF007F0887052730F100F530F000B4
:1009A600F00BD32CF10BD32C0800423441345434D1
:1009B6005434203456344F344C3454343A3420347E
:1009C6002034203420342034003400340034003401
:1009D6000034F200F101721CF12CF22CF62C700896
:1009E600FF007F08F1070310F00D0310F20C7208E8
:1009F600031DFE2CFF2CEE2C71080800F200F730C8
:100A0600FF007F0883120313870572088800071406
:100A1600FE30FF007F0887052730F100F530F00033
:100A2600F00B132DF10B132D0800F401F501701CCA
:100A36001D2D1E2D242D7208F4070318F50A7308C0
:100A4600F50701300310F20DF30DFF3E031D252DB2
:100A560001300310F10CF00CFF3E031D2C2D700825
:100A66007104031D372D382D1A2D7508F1007408F1
:100A7600F0000800423441345434543420344E34A7
:100A86004F3452344D3441344C3400340034003445
:100A96000034423441345434543420344C344F34CA
:100AA6005734003400340034003400340034003449
:100AB600423441345434543420344834493447346D
:100AC6004834003400340034FA01FB017608770418
:100AD60003196E2D6F2DA62DFC01FC0A7D2D01300C
:100AE6000310F60DF70DFF3E031D732D0130FF00B9
:100AF6007F08FC07F71F802D812D722D0130031012
:100B0600FA0DFB0DFF3E031D822D77087902031DAA
:100B16008E2D76087802031C912D922D992D76083C
:100B2600F8027708031CF903F9027A14013003105E
:100B3600F70CF60CFF3E031D9A2D0130FC02031D37
:100B4600A52DA62D812D7B08F7007A08F600080052
:100B5600F03083160313860087018801F030831274
:100B6600031386007F30FF007F0883160313810579
:100B7600C330F400CD30F300F30BBF2DF40BBF2DC3
:100B860030300A128A1101250A128A11C330F40084
:100B9600CD30F300F30BCD2DF40BCD2D30300A12F2
:100BA6008A1101250A128A11C330F400CD30F300F0
:100BB600F30BDB2DF40BDB2D30300A128A110125E5
:100BC6000A128A11C330F400CD30F300F30BE92D7D
:100BD600F40BE92D38300A128A1101250A128A11FE
:100BE600C330F400CD30F300F30BF72DF40BF72DE3
:100BF6000C300A128A1101250A128A11C330F40038
:100C0600CD30F300F30B052EF40B052E01300A123E
:100C16008A1101250A128A11C330F400CD30F3007F
:100C2600F30B132EF40B132E963083120313CC0002
:100C36000030CD000800831203130608F039D600F1
:100C4600982E80300A128A1101250A128A118312FF
:100C56000313D8010A305802031C322E332E342EC9
:100C6600452E5808BE3E8400831300080A128A11D6
:100C7600C4240A128A110130FF007F08831203136D
:100C8600D8072D2E8B300A128A1101250A128A11D5
:100C9600831203134D08DA004C08D9000A128A1190
:100CA600AF260A128A11AE2E0130CC070318CD0AE0
:100CB6000030CD0700304D02E23003194C02031C10
:100CC600652E662E6A2EE130CC000030CD008830CD
:100CD6000A128A1101250A128A114B2E0130CC0202
:100CE6000030031CCD03CD0288300A128A1101257B
:100CF6000A128A110030831203134D02963003192B
:100D06004C020318872E882E4B2E9630CC000030CE
:100D1600CD004B2E9B30CC000030CD0088300A121F
:100D26008A1101250A128A114B2E5608DE00DF01B0
:100D36005F08003A0319A02EAE2E5E08703A03191A
:100D46008D2EC03A0319712E603A0319572E303A88
:100D56000319242EAE2E08006430F6000030F7008A
:100D6600831203135A08F9005908F8000A128A1167
:100D760067250A128A11760883120313DB00DC0149
:100D86005B08D4005C08D5000A30F6000030F70096
:100D96005508F1005408F0009C30F200FF30F300D3
:100DA6000A128A1118250A128A1183120313590886
:100DB6007007F8005A0803185A0A7107F9000A1250
:100DC6008A1167250A128A11760883120313DB003B
:100DD600DC015B08D2005C08D3009C30F0005408AC
:100DE6000A128A11EC240A128A1183120313DB00F9
:100DF600F630F00052080A128A11EC240A128A11FF
:100E0600831203135B075907DC00DD015C08D00081
:100E16005D08D1008B300A128A1101250A128A1147
:100E2600831203135408303E0A128A11C4240A128C
:100E36008A118C300A128A1101250A128A1183122C
:100E460003135208303E0A128A11C4240A128A1168
:100E56008D300A128A1101250A128A112E300A12C1
:100E66008A11C4240A128A118E300A128A110125A7
:100E76000A128A11831203135008303E0A128A118D
:100E8600C4240A128A11C3300A128A1101250A12D1
:100E96008A110030831203134D02963003194C0257
:100EA600031C562F572F792F00304D02AF300319F0
:100EB6004C0203185F2F602F792FD8010D3058028E
:100EC600031C662F672F682FCF2F58082F3E8400EC
:100ED600831300080A128A11C4240A128A110130E7
:100EE600FF007F0883120313D807612F00304D02DD
:100EF600AF3003194C02031C812F822FA42F003020
:100F06004D02CD3003194C0203188A2F8B2FA42FC4
:100F1600D8010D305802031C912F922F932FCF2FFB
:100F26005808203E8400831300080A128A11C4243C
:100F36000A128A110130FF007F0883120313D807B3
:100F46008C2F00304D02CD3003194C02031CAC2F00
:100F5600AD2FCF2F00304D02E13003194C0203189C
:100F6600B52FB62FCF2FD8010D305802031CBC2F3A
:100F7600BD2FBE2FCF2F58083E3E84008313000896
:100F86000A128A11C4240A128A110130FF007F084E
:100F960083120313D807B72F08008313D230FD003E
:100FA6000430FE00D830FF00BE3084000A128A11D9
:100FB600B5240A128A114A30FD000530FE003D3084
:100FC600FF00203084000A128A11B5240A128A1101
:100FD600A0308400BE300A128A119B240A128A119C
:100FE6004A30840059300A128A119B240A128A1147
:0A0FF600FD0183010A128A11A32CE9
:02400E003B3F36
:00000001FF
