:060000000A128A11EB2F29
:100DE400483441345234493448344134523441341F
:100DF400533455344434483441344E34003400348C
:100E0400F200831203138711720888000714071075
:100E1400C330F100CD30F000F00B0E2FF10B0E2F8C
:100E24000800F20083120313871572088800071460
:100E34000710C330F100CD30F000F00B1F2FF10B81
:100E44001F2F08007E088A007F0882000A128A1178
:100E540024270A128A118000840A04087D060319D3
:100E64000034FF0A0319FE0A282F0A128A117C276C
:100E74000A128A1181300A128A1102270A128A116F
:100E8400F7017708203E8400831300080A128A11B0
:100E940013270A128A110130FF007F08F7070F3069
:100EA4007702031C562F572F432F04300A128A113E
:100EB40002270A128A11CE300A128A1102270A1254
:100EC4008A11F6017608203E8400831300080A1272
:100ED4008A1113270A128A110130FF007F08F607CE
:100EE4000F307602031C772F782F642F782F0A1285
:100EF4008A1100288316031387018801C330F40084
:100F0400CD30F300F30B842FF40B842F30300A120E
:100F14008A1102270A128A11C330F400CD30F3007B
:100F2400F30B922FF40B922F30300A128A110227FE
:100F34000A128A11C330F400CD30F300F30BA02F52
:100F4400F40BA02F30300A128A1102270A128A11D8
:100F5400C330F400CD30F300F30BAE2FF40BAE2FFF
:100F640038300A128A1102270A128A11C330F40097
:100F7400CD30F300F30BBC2FF40BBC2F06300A1258
:100F84008A1102270A128A11C330F400CD30F3000B
:100F9400F30BCA2FF40BCA2F0C300A128A11022742
:100FA4000A128A11C330F400CD30F300F30BD82FAA
:100FB400F40BD82F01300A128A1102270A128A115F
:100FC400C330F400CD30F300F30BE62FF40BE62F1F
:100FD400080083133030FD000630FE00F230FF00BD
:100FE400203084000A128A1128270A128A11F50176
:0C0FF400F601F70183010A128A11372F61
:02400E003B3F36
:00000001FF
