:060000000A128A11EC2F28
:100E4200483445344C344C344F34203457344F34C6
:100E520052344C344434F200831203138711720863
:100E6200880007140710C330F100CD30F000F00BFA
:100E7200382FF10B382F0800F20083120313871565
:100E82007208880007140710C330F100CD30F0005B
:100E9200F00B492FF10B492F08007E088A007F08CA
:100EA20082000A128A114E270A128A118000840ACD
:100EB20004087D0603190034FF0A0319FE0A522FA3
:100EC2000A128A1185270A128A1183300A128A119C
:100ED2002C270A128A11F6017608203E8400831319
:100EE20000080A128A113D270A128A110130FF00F6
:100EF2007F08F6070B307602031C802F812F6D2F9F
:100F0200812F0A128A110028831603138701880190
:100F120038300A128A112C270A128A11C330F400BF
:100F2200CD30F300F30B932FF40B932F38300A12CA
:100F32008A112C270A128A11C330F400CD30F30033
:100F4200F30BA12FF40BA12F38300A128A112C2790
:100F52000A128A11C330F400CD30F300F30BAF2F25
:100F6200F40BAF2F38300A128A112C270A128A1179
:100F7200C330F400CD30F300F30BBD2FF40BBD2FC3
:100F820006300A128A112C270A128A11C330F40081
:100F9200CD30F300F30BCB2FF40BCB2F0C300A1216
:100FA2008A112C270A128A11C330F400CD30F300C3
:100FB200F30BD92FF40BD92F01300A128A112C27E7
:100FC2000A128A11C330F400CD30F300F30BE72F7D
:100FD200F40BE72F080083132B30FD000730FE00CF
:100FE2002130FF00203084000A128A1152270A128F
:0E0FF2008A11F501F60183010A128A11612F9E
:02400E003B3F36
:00000001FF
